{
  "address": "0x870526b7973b56163a6997bB7C886F5E4EA53638",
  "abi": [
    {
      "anonymous": false,
      "inputs": [
        {
          "indexed": true,
          "internalType": "address",
          "name": "account",
          "type": "address"
        },
        {
          "indexed": true,
          "internalType": "address",
          "name": "operator",
          "type": "address"
        },
        {
          "indexed": false,
          "internalType": "bool",
          "name": "approved",
          "type": "bool"
        }
      ],
      "name": "ApprovalForAll",
      "type": "event"
    },
    {
      "anonymous": false,
      "inputs": [
        {
          "indexed": false,
          "internalType": "address",
          "name": "to",
          "type": "address"
        },
        {
          "indexed": false,
          "internalType": "uint256",
          "name": "value",
          "type": "uint256"
        },
        {
          "indexed": false,
          "internalType": "bytes",
          "name": "data",
          "type": "bytes"
        }
      ],
      "name": "Call",
      "type": "event"
    },
    {
      "anonymous": false,
      "inputs": [
        {
          "indexed": false,
          "internalType": "address",
          "name": "minter",
          "type": "address"
        },
        {
          "indexed": false,
          "internalType": "uint256[]",
          "name": "mintIds",
          "type": "uint256[]"
        },
        {
          "indexed": false,
          "internalType": "uint256[]",
          "name": "mintAmounts",
          "type": "uint256[]"
        }
      ],
      "name": "Mint",
      "type": "event"
    },
    {
      "anonymous": false,
      "inputs": [
        {
          "indexed": true,
          "internalType": "address",
          "name": "previousOwner",
          "type": "address"
        },
        {
          "indexed": true,
          "internalType": "address",
          "name": "newOwner",
          "type": "address"
        }
      ],
      "name": "OwnershipTransferred",
      "type": "event"
    },
    {
      "anonymous": false,
      "inputs": [
        {
          "indexed": false,
          "internalType": "address",
          "name": "redeemer",
          "type": "address"
        },
        {
          "indexed": false,
          "internalType": "uint256[]",
          "name": "redeemIds",
          "type": "uint256[]"
        },
        {
          "indexed": false,
          "internalType": "uint256[]",
          "name": "redeemAmounts",
          "type": "uint256[]"
        }
      ],
      "name": "Redeem",
      "type": "event"
    },
    {
      "anonymous": false,
      "inputs": [
        {
          "indexed": true,
          "internalType": "address",
          "name": "operator",
          "type": "address"
        },
        {
          "indexed": true,
          "internalType": "address",
          "name": "from",
          "type": "address"
        },
        {
          "indexed": true,
          "internalType": "address",
          "name": "to",
          "type": "address"
        },
        {
          "indexed": false,
          "internalType": "uint256[]",
          "name": "ids",
          "type": "uint256[]"
        },
        {
          "indexed": false,
          "internalType": "uint256[]",
          "name": "values",
          "type": "uint256[]"
        }
      ],
      "name": "TransferBatch",
      "type": "event"
    },
    {
      "anonymous": false,
      "inputs": [
        {
          "indexed": true,
          "internalType": "address",
          "name": "operator",
          "type": "address"
        },
        {
          "indexed": true,
          "internalType": "address",
          "name": "from",
          "type": "address"
        },
        {
          "indexed": true,
          "internalType": "address",
          "name": "to",
          "type": "address"
        },
        {
          "indexed": false,
          "internalType": "uint256",
          "name": "id",
          "type": "uint256"
        },
        {
          "indexed": false,
          "internalType": "uint256",
          "name": "value",
          "type": "uint256"
        }
      ],
      "name": "TransferSingle",
      "type": "event"
    },
    {
      "anonymous": false,
      "inputs": [
        {
          "indexed": false,
          "internalType": "string",
          "name": "value",
          "type": "string"
        },
        {
          "indexed": true,
          "internalType": "uint256",
          "name": "id",
          "type": "uint256"
        }
      ],
      "name": "URI",
      "type": "event"
    },
    {
      "inputs": [
        {
          "internalType": "string",
          "name": "uri_",
          "type": "string"
        }
      ],
      "name": "__ERC1155Enumerable_init",
      "outputs": [],
      "stateMutability": "nonpayable",
      "type": "function"
    },
    {
      "inputs": [
        {
          "internalType": "address",
          "name": "account",
          "type": "address"
        },
        {
          "internalType": "uint256",
          "name": "id",
          "type": "uint256"
        }
      ],
      "name": "balanceOf",
      "outputs": [
        {
          "internalType": "uint256",
          "name": "",
          "type": "uint256"
        }
      ],
      "stateMutability": "view",
      "type": "function"
    },
    {
      "inputs": [
        {
          "internalType": "address[]",
          "name": "accounts",
          "type": "address[]"
        },
        {
          "internalType": "uint256[]",
          "name": "ids",
          "type": "uint256[]"
        }
      ],
      "name": "balanceOfBatch",
      "outputs": [
        {
          "internalType": "uint256[]",
          "name": "",
          "type": "uint256[]"
        }
      ],
      "stateMutability": "view",
      "type": "function"
    },
    {
      "inputs": [
        {
          "internalType": "address",
          "name": "to",
          "type": "address"
        },
        {
          "internalType": "uint256",
          "name": "value",
          "type": "uint256"
        },
        {
          "internalType": "bytes",
          "name": "data",
          "type": "bytes"
        }
      ],
      "name": "call",
      "outputs": [
        {
          "internalType": "bool",
          "name": "success",
          "type": "bool"
        }
      ],
      "stateMutability": "payable",
      "type": "function"
    },
    {
      "inputs": [],
      "name": "comptroller",
      "outputs": [
        {
          "internalType": "address",
          "name": "",
          "type": "address"
        }
      ],
      "stateMutability": "view",
      "type": "function"
    },
    {
      "inputs": [
        {
          "internalType": "string",
          "name": "_uri",
          "type": "string"
        },
        {
          "internalType": "address",
          "name": "_underlying",
          "type": "address"
        },
        {
          "internalType": "bool",
          "name": "_isPunk",
          "type": "bool"
        },
        {
          "internalType": "bool",
          "name": "_is1155",
          "type": "bool"
        },
        {
          "internalType": "address",
          "name": "_comptroller",
          "type": "address"
        }
      ],
      "name": "initialize",
      "outputs": [],
      "stateMutability": "nonpayable",
      "type": "function"
    },
    {
      "inputs": [],
      "name": "is1155",
      "outputs": [
        {
          "internalType": "bool",
          "name": "",
          "type": "bool"
        }
      ],
      "stateMutability": "view",
      "type": "function"
    },
    {
      "inputs": [
        {
          "internalType": "address",
          "name": "account",
          "type": "address"
        },
        {
          "internalType": "address",
          "name": "operator",
          "type": "address"
        }
      ],
      "name": "isApprovedForAll",
      "outputs": [
        {
          "internalType": "bool",
          "name": "",
          "type": "bool"
        }
      ],
      "stateMutability": "view",
      "type": "function"
    },
    {
      "inputs": [],
      "name": "isCNft",
      "outputs": [
        {
          "internalType": "bool",
          "name": "",
          "type": "bool"
        }
      ],
      "stateMutability": "view",
      "type": "function"
    },
    {
      "inputs": [],
      "name": "isPunk",
      "outputs": [
        {
          "internalType": "bool",
          "name": "",
          "type": "bool"
        }
      ],
      "stateMutability": "view",
      "type": "function"
    },
    {
      "inputs": [
        {
          "internalType": "uint256[]",
          "name": "tokenIds",
          "type": "uint256[]"
        },
        {
          "internalType": "uint256[]",
          "name": "amounts",
          "type": "uint256[]"
        }
      ],
      "name": "mint",
      "outputs": [
        {
          "internalType": "uint256",
          "name": "",
          "type": "uint256"
        }
      ],
      "stateMutability": "nonpayable",
      "type": "function"
    },
    {
      "inputs": [
        {
          "internalType": "address",
          "name": "operator",
          "type": "address"
        },
        {
          "internalType": "address",
          "name": "from",
          "type": "address"
        },
        {
          "internalType": "uint256[]",
          "name": "ids",
          "type": "uint256[]"
        },
        {
          "internalType": "uint256[]",
          "name": "values",
          "type": "uint256[]"
        },
        {
          "internalType": "bytes",
          "name": "data",
          "type": "bytes"
        }
      ],
      "name": "onERC1155BatchReceived",
      "outputs": [
        {
          "internalType": "bytes4",
          "name": "",
          "type": "bytes4"
        }
      ],
      "stateMutability": "nonpayable",
      "type": "function"
    },
    {
      "inputs": [
        {
          "internalType": "address",
          "name": "operator",
          "type": "address"
        },
        {
          "internalType": "address",
          "name": "from",
          "type": "address"
        },
        {
          "internalType": "uint256",
          "name": "id",
          "type": "uint256"
        },
        {
          "internalType": "uint256",
          "name": "value",
          "type": "uint256"
        },
        {
          "internalType": "bytes",
          "name": "data",
          "type": "bytes"
        }
      ],
      "name": "onERC1155Received",
      "outputs": [
        {
          "internalType": "bytes4",
          "name": "",
          "type": "bytes4"
        }
      ],
      "stateMutability": "nonpayable",
      "type": "function"
    },
    {
      "inputs": [
        {
          "internalType": "address",
          "name": "operator",
          "type": "address"
        },
        {
          "internalType": "address",
          "name": "from",
          "type": "address"
        },
        {
          "internalType": "uint256",
          "name": "tokenId",
          "type": "uint256"
        },
        {
          "internalType": "bytes",
          "name": "data",
          "type": "bytes"
        }
      ],
      "name": "onERC721Received",
      "outputs": [
        {
          "internalType": "bytes4",
          "name": "",
          "type": "bytes4"
        }
      ],
      "stateMutability": "nonpayable",
      "type": "function"
    },
    {
      "inputs": [],
      "name": "owner",
      "outputs": [
        {
          "internalType": "address",
          "name": "",
          "type": "address"
        }
      ],
      "stateMutability": "view",
      "type": "function"
    },
    {
      "inputs": [
        {
          "internalType": "uint256[]",
          "name": "tokenIds",
          "type": "uint256[]"
        },
        {
          "internalType": "uint256[]",
          "name": "amounts",
          "type": "uint256[]"
        }
      ],
      "name": "redeem",
      "outputs": [],
      "stateMutability": "nonpayable",
      "type": "function"
    },
    {
      "inputs": [],
      "name": "renounceOwnership",
      "outputs": [],
      "stateMutability": "nonpayable",
      "type": "function"
    },
    {
      "inputs": [
        {
          "internalType": "address",
          "name": "from",
          "type": "address"
        },
        {
          "internalType": "address",
          "name": "to",
          "type": "address"
        },
        {
          "internalType": "uint256[]",
          "name": "ids",
          "type": "uint256[]"
        },
        {
          "internalType": "uint256[]",
          "name": "amounts",
          "type": "uint256[]"
        },
        {
          "internalType": "bytes",
          "name": "data",
          "type": "bytes"
        }
      ],
      "name": "safeBatchTransferFrom",
      "outputs": [],
      "stateMutability": "nonpayable",
      "type": "function"
    },
    {
      "inputs": [
        {
          "internalType": "address",
          "name": "from",
          "type": "address"
        },
        {
          "internalType": "address",
          "name": "to",
          "type": "address"
        },
        {
          "internalType": "uint256",
          "name": "id",
          "type": "uint256"
        },
        {
          "internalType": "uint256",
          "name": "amount",
          "type": "uint256"
        },
        {
          "internalType": "bytes",
          "name": "data",
          "type": "bytes"
        }
      ],
      "name": "safeTransferFrom",
      "outputs": [],
      "stateMutability": "nonpayable",
      "type": "function"
    },
    {
      "inputs": [
        {
          "internalType": "address",
          "name": "liquidator",
          "type": "address"
        },
        {
          "internalType": "address",
          "name": "borrower",
          "type": "address"
        },
        {
          "internalType": "uint256[]",
          "name": "seizeIds",
          "type": "uint256[]"
        },
        {
          "internalType": "uint256[]",
          "name": "seizeAmounts",
          "type": "uint256[]"
        }
      ],
      "name": "seize",
      "outputs": [],
      "stateMutability": "nonpayable",
      "type": "function"
    },
    {
      "inputs": [
        {
          "internalType": "address",
          "name": "operator",
          "type": "address"
        },
        {
          "internalType": "bool",
          "name": "approved",
          "type": "bool"
        }
      ],
      "name": "setApprovalForAll",
      "outputs": [],
      "stateMutability": "nonpayable",
      "type": "function"
    },
    {
      "inputs": [
        {
          "internalType": "bytes4",
          "name": "interfaceId",
          "type": "bytes4"
        }
      ],
      "name": "supportsInterface",
      "outputs": [
        {
          "internalType": "bool",
          "name": "",
          "type": "bool"
        }
      ],
      "stateMutability": "view",
      "type": "function"
    },
    {
      "inputs": [
        {
          "internalType": "address",
          "name": "account",
          "type": "address"
        }
      ],
      "name": "tokensByAccount",
      "outputs": [
        {
          "internalType": "uint256[]",
          "name": "",
          "type": "uint256[]"
        }
      ],
      "stateMutability": "view",
      "type": "function"
    },
    {
      "inputs": [
        {
          "internalType": "address",
          "name": "",
          "type": "address"
        }
      ],
      "name": "totalBalance",
      "outputs": [
        {
          "internalType": "uint256",
          "name": "",
          "type": "uint256"
        }
      ],
      "stateMutability": "view",
      "type": "function"
    },
    {
      "inputs": [],
      "name": "totalSupply",
      "outputs": [
        {
          "internalType": "uint256",
          "name": "",
          "type": "uint256"
        }
      ],
      "stateMutability": "view",
      "type": "function"
    },
    {
      "inputs": [
        {
          "internalType": "address",
          "name": "newOwner",
          "type": "address"
        }
      ],
      "name": "transferOwnership",
      "outputs": [],
      "stateMutability": "nonpayable",
      "type": "function"
    },
    {
      "inputs": [],
      "name": "underlying",
      "outputs": [
        {
          "internalType": "address",
          "name": "",
          "type": "address"
        }
      ],
      "stateMutability": "view",
      "type": "function"
    },
    {
      "inputs": [
        {
          "internalType": "uint256",
          "name": "",
          "type": "uint256"
        }
      ],
      "name": "uri",
      "outputs": [
        {
          "internalType": "string",
          "name": "",
          "type": "string"
        }
      ],
      "stateMutability": "view",
      "type": "function"
    }
  ],
  "numDeployments": 1,
  "solcInputHash": "874a0cf191dafd71a0191b3e6171916b",
  "bytecode": "0x608060405234801561001057600080fd5b50613d16806100206000396000f3fe6080604052600436106101b65760003560e01c80636f307dc3116100ec578063bc197c811161008a578063e985e9c511610064578063e985e9c51461050b578063f23a6e6114610554578063f242432a14610574578063f2fde38b1461059457600080fd5b8063bc197c81146104ab578063cce36ecd146104cb578063d71dfb99146104eb57600080fd5b80638da5cb5b116100c65780638da5cb5b146104385780639380920814610456578063a22cb46514610476578063aa80b6cc1461049657600080fd5b80636f307dc3146103e3578063715018a61461040357806385bff2e71461041857600080fd5b80632eb2c2d6116101595780635fe3b567116101335780635fe3b5671461034a5780636a11a3d8146103825780636dbf2fa0146103a35780636eacd398146103b657600080fd5b80632eb2c2d6146102dd5780633d5d190c146102fd5780634e1273f41461031d57600080fd5b80630e89341c116101955780630e89341c1461023f578063150b7a021461026c57806318160ddd146102a55780632ca51e22146102bb57600080fd5b8062fdd58e146101bb57806301ffc9a7146101ee57806306f26dc21461021e575b600080fd5b3480156101c757600080fd5b506101db6101d6366004612efd565b6105b4565b6040519081526020015b60405180910390f35b3480156101fa57600080fd5b5061020e610209366004612f3f565b610650565b60405190151581526020016101e5565b34801561022a57600080fd5b5060015461020e90600160a81b900460ff1681565b34801561024b57600080fd5b5061025f61025a366004612f63565b610690565b6040516101e59190612fd8565b34801561027857600080fd5b5061028c610287366004613033565b610724565b6040516001600160e01b031990911681526020016101e5565b3480156102b157600080fd5b506101db609a5481565b3480156102c757600080fd5b506102db6102d63660046130e9565b61078e565b005b3480156102e957600080fd5b506102db6102f8366004613154565b610d4c565b34801561030957600080fd5b506101db6103183660046130e9565b610fe4565b34801561032957600080fd5b5061033d6103383660046132e8565b611647565b6040516101e591906133ef565b34801561035657600080fd5b5060005461036a906001600160a01b031681565b6040516001600160a01b0390911681526020016101e5565b34801561038e57600080fd5b5060015461020e90600160a01b900460ff1681565b61020e6103b1366004613402565b611770565b3480156103c257600080fd5b506101db6103d1366004613451565b60026020526000908152604090205481565b3480156103ef57600080fd5b5060015461036a906001600160a01b031681565b34801561040f57600080fd5b506102db6118cd565b34801561042457600080fd5b5061033d610433366004613451565b611903565b34801561044457600080fd5b5060ce546001600160a01b031661036a565b34801561046257600080fd5b506102db61047136600461346e565b61196e565b34801561048257600080fd5b506102db610491366004613510565b611c84565b3480156104a257600080fd5b5061020e600181565b3480156104b757600080fd5b5061028c6104c6366004613154565b611c93565b3480156104d757600080fd5b506102db6104e63660046135bc565b611d00565b3480156104f757600080fd5b506102db610506366004613645565b611f5c565b34801561051757600080fd5b5061020e610526366004613681565b6001600160a01b03918216600090815260696020908152604080832093909416825291909152205460ff1690565b34801561056057600080fd5b5061028c61056f3660046136af565b611f8f565b34801561058057600080fd5b506102db61058f3660046136af565b611ffa565b3480156105a057600080fd5b506102db6105af366004613451565b612052565b60006001600160a01b0383166106255760405162461bcd60e51b815260206004820152602b60248201527f455243313135353a2062616c616e636520717565727920666f7220746865207a60448201526a65726f206164647265737360a81b60648201526084015b60405180910390fd5b5060008181526068602090815260408083206001600160a01b03861684529091529020545b92915050565b60006001600160e01b03198216630271189760e51b148061068157506001600160e01b03198216630a85bd0160e11b145b8061064a575061064a826120ea565b6060606a805461069f90613718565b80601f01602080910402602001604051908101604052809291908181526020018280546106cb90613718565b80156107185780601f106106ed57610100808354040283529160200191610718565b820191906000526020600020905b8154815290600101906020018083116106fb57829003601f168201915b50505050509050919050565b60015460009086906001600160a01b031633146107535760405162461bcd60e51b815260040161061c90613753565b6001600160a01b038116301461077b5760405162461bcd60e51b815260040161061c906137b0565b50630a85bd0160e11b9695505050505050565b6002609c5414156107b15760405162461bcd60e51b815260040161061c90613800565b6002609c558281146107d55760405162461bcd60e51b815260040161061c90613837565b826000805b828110156108ea57600154600160a81b900460ff1661082b578484828181106108055761080561386c565b9050602002013560011461082b5760405162461bcd60e51b815260040161061c90613882565b84848281811061083d5761083d61386c565b905060200201358261084f91906138e6565b91508484828181106108635761086361386c565b9050602002013561088c338989858181106108805761088061386c565b905060200201356105b4565b10156108da5760405162461bcd60e51b815260206004820152601f60248201527f434e46543a204e6f7420656e6f756768204e46547320746f2072656465656d00604482015260640161061c565b6108e3816138fe565b90506107da565b506000805460405163eabe7d9160e01b8152306004820152336024820152604481018490526001600160a01b039091169063eabe7d9190606401602060405180830381600087803b15801561093e57600080fd5b505af1158015610952573d6000803e3d6000fd5b505050506040513d601f19601f820116820180604052508101906109769190613919565b905080156109c65760405162461bcd60e51b815260206004820152601b60248201527f434e46543a2052656465656d206973206e6f7420616c6c6f7765640000000000604482015260640161061c565b33600090815260026020526040812080548492906109e5908490613932565b92505081905550610a5a3388888080602002602001604051908101604052809392919081815260200183836020028082843760009201919091525050604080516020808c0282810182019093528b82529093508b92508a91829185019084908082843760009201919091525061213a92505050565b600154600160a81b900460ff1615610add57600154604051631759616b60e11b81526001600160a01b0390911690632eb2c2d690610aa690309033908c908c908c908c9060040161397f565b600060405180830381600087803b158015610ac057600080fd5b505af1158015610ad4573d6000803e3d6000fd5b50505050610cff565b600154600160a01b900460ff1615610c3f5760005b83811015610c3957600033898984818110610b0f57610b0f61386c565b6040516001600160a01b039094166024850152602002919091013560448301525060640160408051601f198184030181529181526020820180516001600160e01b03166322dca8bb60e21b17905260015490519192506000916001600160a01b0390911690610b7f9084906139de565b6000604051808303816000865af19150503d8060008114610bbc576040519150601f19603f3d011682016040523d82523d6000602084013e610bc1565b606091505b5050905080610c265760405162461bcd60e51b815260206004820152602b60248201527f434e46543a2043616c6c696e67207472616e7366657250756e6b20776173207560448201526a1b9cdd58d8d95cdcd99d5b60aa1b606482015260840161061c565b505080610c32906138fe565b9050610af2565b50610cff565b60005b83811015610cfd576001546001600160a01b031663b88d4fde30338b8b86818110610c6f57610c6f61386c565b6040516001600160e01b031960e088901b1681526001600160a01b03958616600482015294909316602485015250602090910201356044820152608060648201526000608482015260a401600060405180830381600087803b158015610cd457600080fd5b505af1158015610ce8573d6000803e3d6000fd5b5050505080610cf6906138fe565b9050610c42565b505b7fd63285f33fab7fc260b1b9e7ce1abbf3fc8906df5a271e6ebd3062bdca7bb29e3388888888604051610d369594939291906139fa565b60405180910390a150506001609c555050505050565b6002609c541415610d6f5760405162461bcd60e51b815260040161061c90613800565b6002609c55604080518082019091526000602082018190528682525b8151811015610dd157858582818110610da657610da661386c565b9050602002013582602001818151610dbe91906138e6565b905250610dca816138fe565b9050610d8b565b506000805460208301516040516317b9b84b60e31b81523060048201526001600160a01b038d811660248301528c81166044830152606482019290925291169063bdcdc25890608401602060405180830381600087803b158015610e3457600080fd5b505af1158015610e48573d6000803e3d6000fd5b505050506040513d601f19601f82011682018060405250810190610e6c9190613919565b90508015610ebc5760405162461bcd60e51b815260206004820152601b60248201527f434e46543a2052656465656d206973206e6f7420616c6c6f7765640000000000604482015260640161061c565b8160200151600260008b6001600160a01b03166001600160a01b031681526020019081526020016000206000828254610ef591906138e6565b90915550506020808301516001600160a01b038c166000908152600290925260408220805491929091610f29908490613932565b92505081905550610fd38a8a8a8a8080602002602001604051908101604052809392919081815260200183836020028082843760009201919091525050604080516020808e0282810182019093528d82529093508d92508c91829185019084908082843760009201919091525050604080516020601f8d018190048102820181019092528b815292508b91508a908190840183828082843760009201919091525061234392505050565b50506001609c555050505050505050565b60006002609c5414156110095760405162461bcd60e51b815260040161061c90613800565b6002609c5583821461102d5760405162461bcd60e51b815260040161061c90613837565b60008054604051634ef4c3e160e01b8152306004820152336024820152604481018390526001600160a01b0390911690634ef4c3e190606401602060405180830381600087803b15801561108057600080fd5b505af1158015611094573d6000803e3d6000fd5b505050506040513d601f19601f820116820180604052508101906110b89190613919565b905080156111085760405162461bcd60e51b815260206004820152601960248201527f434e46543a204d696e74206973206e6f7420616c6c6f77656400000000000000604482015260640161061c565b846000805b8281101561119457600154600160a81b900460ff1661115e578686828181106111385761113861386c565b9050602002013560011461115e5760405162461bcd60e51b815260040161061c90613882565b8686828181106111705761117061386c565b905060200201358261118291906138e6565b915061118d816138fe565b905061110d565b5033600090815260026020526040812080548392906111b49084906138e6565b9091555050600154600160a81b900460ff161561123c57600154604051631759616b60e11b81526001600160a01b0390911690632eb2c2d69061120590339030908d908d908d908d9060040161397f565b600060405180830381600087803b15801561121f57600080fd5b505af1158015611233573d6000803e3d6000fd5b5050505061157c565b600154600160a01b900460ff16156114bc5760005b828110156114b657600089898381811061126d5761126d61386c565b9050602002013560405160240161128691815260200190565b60408051601f198184030181529181526020820180516001600160e01b0316630b02f02d60e31b179052600154905191925060009182916001600160a01b0316906112d29085906139de565b600060405180830381855afa9150503d806000811461130d576040519150601f19603f3d011682016040523d82523d6000602084013e611312565b606091505b509150915060008180602001905181019061132d9190613a3e565b905082801561134457506001600160a01b03811633145b6113845760405162461bcd60e51b81526020600482015260116024820152702737ba103a34329027232a1037bbb732b960791b604482015260640161061c565b60008d8d878181106113985761139861386c565b905060200201356040516024016113b191815260200190565b60408051601f198184030181529181526020820180516001600160e01b031663104c9fd360e31b17905260015490519192506000916001600160a01b03909116906113fd9084906139de565b6000604051808303816000865af19150503d806000811461143a576040519150601f19603f3d011682016040523d82523d6000602084013e61143f565b606091505b505090508061149f5760405162461bcd60e51b815260206004820152602660248201527f434e46543a2043616c6c696e672062757950756e6b2077617320756e73756363604482015265195cdcd99d5b60d21b606482015260840161061c565b505050505050806114af906138fe565b9050611251565b5061157c565b60005b8281101561157a576001546001600160a01b031663b88d4fde33308c8c868181106114ec576114ec61386c565b6040516001600160e01b031960e088901b1681526001600160a01b03958616600482015294909316602485015250602090910201356044820152608060648201526000608482015260a401600060405180830381600087803b15801561155157600080fd5b505af1158015611565573d6000803e3d6000fd5b5050505080611573906138fe565b90506114bf565b505b6115f83389898080602002602001604051908101604052809392919081815260200183836020028082843760009201919091525050604080516020808d0282810182019093528c82529093508c92508b9182918501908490808284376000920182905250604080516020810190915290815292506123da915050565b7f0329a7c1652297b926cc497fd75d078847dbaa7a5a782d651dba3fdf3e8b38da338989898960405161162f9594939291906139fa565b60405180910390a1506001609c559695505050505050565b606081518351146116ac5760405162461bcd60e51b815260206004820152602960248201527f455243313135353a206163636f756e747320616e6420696473206c656e677468604482015268040dad2e6dac2e8c6d60bb1b606482015260840161061c565b600083516001600160401b038111156116c7576116c7613212565b6040519080825280602002602001820160405280156116f0578160200160208202803683370190505b50905060005b84518110156117685761173b8582815181106117145761171461386c565b602002602001015185838151811061172e5761172e61386c565b60200260200101516105b4565b82828151811061174d5761174d61386c565b6020908102919091010152611761816138fe565b90506116f6565b509392505050565b60006002609c5414156117955760405162461bcd60e51b815260040161061c90613800565b6002609c5560ce546001600160a01b031633146117c45760405162461bcd60e51b815260040161061c90613a5b565b6001546001600160a01b03868116911614156118405760405162461bcd60e51b815260206004820152603560248201527f434e46543a2043616e6e6f74206d616b6520616e206172626974726172792063604482015274185b1b081d1bc81d5b99195c9b1e5a5b99c8139195605a1b606482015260840161061c565b611881858585858080601f0160208091040260200160405190810160405280939291908181526020018383808284376000920191909152505050505a61256f565b90507f58920bab8ebe20f458895b68243189a021c51741421c3d98eff715b8e5afe1fa858585856040516118b89493929190613a90565b60405180910390a16001609c55949350505050565b60ce546001600160a01b031633146118f75760405162461bcd60e51b815260040161061c90613a5b565b6119016000612587565b565b6001600160a01b0381166000908152609b602090815260409182902080548351818402810184019094528084526060939283018282801561071857602002820191906000526020600020905b81548152602001906001019080831161194f5750505050509050919050565b6002609c5414156119915760405162461bcd60e51b815260040161061c90613800565b6002609c558281146119b55760405162461bcd60e51b815260040161061c90613837565b6000805460405163d02f735160e01b81523060048201523360248201526001600160a01b0389811660448301528881166064830152608482018490529091169063d02f73519060a401602060405180830381600087803b158015611a1857600080fd5b505af1158015611a2c573d6000803e3d6000fd5b505050506040513d601f19601f82011682018060405250810190611a509190613919565b90508015611aa05760405162461bcd60e51b815260206004820152601a60248201527f434e46543a205365697a65206973206e6f7420616c6c6f776564000000000000604482015260640161061c565b866001600160a01b0316866001600160a01b03161415611b0e5760405162461bcd60e51b815260206004820152602360248201527f434e46543a204c697175696461746f722063616e6e6f7420626520626f72726f6044820152623bb2b960e91b606482015260840161061c565b836000805b82811015611b9a57600154600160a81b900460ff16611b6457858582818110611b3e57611b3e61386c565b90506020020135600114611b645760405162461bcd60e51b815260040161061c90613882565b858582818110611b7657611b7661386c565b9050602002013582611b8891906138e6565b9150611b93816138fe565b9050611b13565b506001600160a01b03891660009081526002602052604081208054839290611bc39084906138e6565b90915550506001600160a01b03881660009081526002602052604081208054839290611bf0908490613932565b92505081905550611c74888a89898080602002602001604051908101604052809392919081815260200183836020028082843760009201919091525050604080516020808d0282810182019093528c82529093508c92508b9182918501908490808284376000920182905250604080516020810190915290815292506125d9915050565b50506001609c5550505050505050565b611c8f3383836127ff565b5050565b60015460009089906001600160a01b03163314611cc25760405162461bcd60e51b815260040161061c90613753565b6001600160a01b0381163014611cea5760405162461bcd60e51b815260040161061c906137b0565b5063bc197c8160e01b9998505050505050505050565b600354610100900460ff16611d1b5760035460ff1615611d1f565b303b155b611d825760405162461bcd60e51b815260206004820152602e60248201527f496e697469616c697a61626c653a20636f6e747261637420697320616c72656160448201526d191e481a5b9a5d1a585b1a5e995960921b606482015260840161061c565b600354610100900460ff16158015611da4576003805461ffff19166101011790555b6001600160a01b038516611e065760405162461bcd60e51b8152602060048201526024808201527f434e46543a2041737365742073686f756c64206e6f74206265206164647265736044820152637328302960e01b606482015260840161061c565b816001600160a01b0316627e3dd26040518163ffffffff1660e01b815260040160206040518083038186803b158015611e3e57600080fd5b505afa158015611e52573d6000803e3d6000fd5b505050506040513d601f19601f82011682018060405250810190611e769190613ad8565b611ed55760405162461bcd60e51b815260206004820152602a60248201527f5f636f6d7074726f6c6c6572206973206e6f74206120436f6d7074726f6c6c656044820152691c8818dbdb9d1c9858dd60b21b606482015260840161061c565b611ede86611f5c565b611ee66128e0565b611eee61290f565b600180546001600160a01b038781166001600160a81b031990921691909117600160a01b871515021760ff60a81b1916600160a81b8615150217909155600080546001600160a01b0319169184169190911790558015611f54576003805461ff00191690555b505050505050565b600354610100900460ff16611f835760405162461bcd60e51b815260040161061c90613af5565b611f8c8161293e565b50565b60015460009087906001600160a01b03163314611fbe5760405162461bcd60e51b815260040161061c90613753565b6001600160a01b0381163014611fe65760405162461bcd60e51b815260040161061c906137b0565b5063f23a6e6160e01b979650505050505050565b60405162461bcd60e51b815260206004820152602760248201527f434e46543a20557365207361666542617463685472616e7366657246726f6d206044820152661a5b9cdd19585960ca1b606482015260840161061c565b60ce546001600160a01b0316331461207c5760405162461bcd60e51b815260040161061c90613a5b565b6001600160a01b0381166120e15760405162461bcd60e51b815260206004820152602660248201527f4f776e61626c653a206e6577206f776e657220697320746865207a65726f206160448201526564647265737360d01b606482015260840161061c565b611f8c81612587565b60006001600160e01b03198216636cdb3d1360e11b148061211b57506001600160e01b031982166303a24d0760e21b145b8061064a57506301ffc9a760e01b6001600160e01b031983161461064a565b6001600160a01b03831661219c5760405162461bcd60e51b815260206004820152602360248201527f455243313135353a206275726e2066726f6d20746865207a65726f206164647260448201526265737360e81b606482015260840161061c565b80518251146121bd5760405162461bcd60e51b815260040161061c90613b40565b60003390506121e08185600086866040518060200160405280600081525061296e565b60005b83518110156122e45760008482815181106122005761220061386c565b60200260200101519050600084838151811061221e5761221e61386c565b60209081029190910181015160008481526068835260408082206001600160a01b038c1683529093529190912054909150818110156122ab5760405162461bcd60e51b8152602060048201526024808201527f455243313135353a206275726e20616d6f756e7420657863656564732062616c604482015263616e636560e01b606482015260840161061c565b60009283526068602090815260408085206001600160a01b038b16865290915290922091039055806122dc816138fe565b9150506121e3565b5060006001600160a01b0316846001600160a01b0316826001600160a01b03167f4a39dc06d4c0dbc64b70af90fd698a233a518aa5d07e595d983b8c0526c8f7fb8686604051612335929190613b88565b60405180910390a450505050565b6001600160a01b03851633148061235f575061235f8533610526565b6123c65760405162461bcd60e51b815260206004820152603260248201527f455243313135353a207472616e736665722063616c6c6572206973206e6f74206044820152711bdddb995c881b9bdc88185c1c1c9bdd995960721b606482015260840161061c565b6123d385858585856125d9565b5050505050565b6001600160a01b03841661243a5760405162461bcd60e51b815260206004820152602160248201527f455243313135353a206d696e7420746f20746865207a65726f206164647265736044820152607360f81b606482015260840161061c565b815183511461245b5760405162461bcd60e51b815260040161061c90613b40565b3361246b8160008787878761296e565b60005b8451811015612507578381815181106124895761248961386c565b6020026020010151606860008784815181106124a7576124a761386c565b602002602001015181526020019081526020016000206000886001600160a01b03166001600160a01b0316815260200190815260200160002060008282546124ef91906138e6565b909155508190506124ff816138fe565b91505061246e565b50846001600160a01b031660006001600160a01b0316826001600160a01b03167f4a39dc06d4c0dbc64b70af90fd698a233a518aa5d07e595d983b8c0526c8f7fb8787604051612558929190613b88565b60405180910390a46123d381600087878787612abc565b6000806000845160208601878987f195945050505050565b60ce80546001600160a01b038381166001600160a01b0319831681179093556040519116919082907f8be0079c531659141344cd1fd0a4f28419497f9722a3daafe3b4186f6b6457e090600090a35050565b81518351146125fa5760405162461bcd60e51b815260040161061c90613b40565b6001600160a01b03841661265e5760405162461bcd60e51b815260206004820152602560248201527f455243313135353a207472616e7366657220746f20746865207a65726f206164604482015264647265737360d81b606482015260840161061c565b3361266d81878787878761296e565b60005b845181101561279957600085828151811061268d5761268d61386c565b6020026020010151905060008583815181106126ab576126ab61386c565b60209081029190910181015160008481526068835260408082206001600160a01b038e16835290935291909120549091508181101561273f5760405162461bcd60e51b815260206004820152602a60248201527f455243313135353a20696e73756666696369656e742062616c616e636520666f60448201526939103a3930b739b332b960b11b606482015260840161061c565b60008381526068602090815260408083206001600160a01b038e8116855292528083208585039055908b1682528120805484929061277e9084906138e6565b9250508190555050505080612792906138fe565b9050612670565b50846001600160a01b0316866001600160a01b0316826001600160a01b03167f4a39dc06d4c0dbc64b70af90fd698a233a518aa5d07e595d983b8c0526c8f7fb87876040516127e9929190613b88565b60405180910390a4611f54818787878787612abc565b816001600160a01b0316836001600160a01b031614156128735760405162461bcd60e51b815260206004820152602960248201527f455243313135353a2073657474696e6720617070726f76616c20737461747573604482015268103337b91039b2b63360b91b606482015260840161061c565b6001600160a01b03838116600081815260696020908152604080832094871680845294825291829020805460ff191686151590811790915591519182527f17307eab39ab6107e8899845ad3d59bd9653f200f220920489ca2b5937696c31910160405180910390a3505050565b600354610100900460ff166129075760405162461bcd60e51b815260040161061c90613af5565b611901612c71565b600354610100900460ff166129365760405162461bcd60e51b815260040161061c90613af5565b611901612c9f565b600354610100900460ff166129655760405162461bcd60e51b815260040161061c90613af5565b611f8c81612ccf565b836001600160a01b0316856001600160a01b0316141561298d57611f54565b6001600160a01b038086166000908152609b602052604080822092871682528120905b8551811015612ab15760008582815181106129cd576129cd61386c565b6020026020010151905080600014156129e65750612aa1565b60008783815181106129fa576129fa61386c565b6020026020010151905060006001600160a01b03168a6001600160a01b03161415612a3c5781609a6000828254612a3191906138e6565b90915550612a599050565b81612a478b836105b4565b1415612a5957612a578582612cff565b505b6001600160a01b038916612a845781609a6000828254612a799190613932565b90915550612a9e9050565b612a8e89826105b4565b612a9e57612a9c8482612df2565b505b50505b612aaa816138fe565b90506129b0565b505050505050505050565b6001600160a01b0384163b15611f545760405163bc197c8160e01b81526001600160a01b0385169063bc197c8190612b009089908990889088908890600401613bb6565b602060405180830381600087803b158015612b1a57600080fd5b505af1925050508015612b4a575060408051601f3d908101601f19168201909252612b4791810190613c08565b60015b612bf757612b56613c25565b806308c379a01415612b905750612b6b613c41565b80612b765750612b92565b8060405162461bcd60e51b815260040161061c9190612fd8565b505b60405162461bcd60e51b815260206004820152603460248201527f455243313135353a207472616e7366657220746f206e6f6e20455243313135356044820152732932b1b2b4bb32b91034b6b83632b6b2b73a32b960611b606482015260840161061c565b6001600160e01b0319811663bc197c8160e01b14612c685760405162461bcd60e51b815260206004820152602860248201527f455243313135353a204552433131353552656365697665722072656a656374656044820152676420746f6b656e7360c01b606482015260840161061c565b50505050505050565b600354610100900460ff16612c985760405162461bcd60e51b815260040161061c90613af5565b6001609c55565b600354610100900460ff16612cc65760405162461bcd60e51b815260040161061c90613af5565b61190133612587565b600354610100900460ff16612cf65760405162461bcd60e51b815260040161061c90613af5565b611f8c81612e41565b60008181526001830160205260408120548015612de8576000612d23600183613932565b8554909150600090612d3790600190613932565b9050818114612d9c576000866000018281548110612d5757612d5761386c565b9060005260206000200154905080876000018481548110612d7a57612d7a61386c565b6000918252602080832090910192909255918252600188019052604090208390555b8554869080612dad57612dad613cca565b60019003818190600052602060002001600090559055856001016000868152602001908152602001600020600090556001935050505061064a565b600091505061064a565b6000818152600183016020526040812054612e395750815460018181018455600084815260208082209093018490558454848252828601909352604090209190915561064a565b50600061064a565b8051611c8f90606a906020840190828054612e5b90613718565b90600052602060002090601f016020900481019282612e7d5760008555612ec3565b82601f10612e9657805160ff1916838001178555612ec3565b82800160010185558215612ec3579182015b82811115612ec3578251825591602001919060010190612ea8565b50612ecf929150612ed3565b5090565b5b80821115612ecf5760008155600101612ed4565b6001600160a01b0381168114611f8c57600080fd5b60008060408385031215612f1057600080fd5b8235612f1b81612ee8565b946020939093013593505050565b6001600160e01b031981168114611f8c57600080fd5b600060208284031215612f5157600080fd5b8135612f5c81612f29565b9392505050565b600060208284031215612f7557600080fd5b5035919050565b60005b83811015612f97578181015183820152602001612f7f565b83811115612fa6576000848401525b50505050565b60008151808452612fc4816020860160208601612f7c565b601f01601f19169290920160200192915050565b602081526000612f5c6020830184612fac565b60008083601f840112612ffd57600080fd5b5081356001600160401b0381111561301457600080fd5b60208301915083602082850101111561302c57600080fd5b9250929050565b60008060008060006080868803121561304b57600080fd5b853561305681612ee8565b9450602086013561306681612ee8565b93506040860135925060608601356001600160401b0381111561308857600080fd5b61309488828901612feb565b969995985093965092949392505050565b60008083601f8401126130b757600080fd5b5081356001600160401b038111156130ce57600080fd5b6020830191508360208260051b850101111561302c57600080fd5b600080600080604085870312156130ff57600080fd5b84356001600160401b038082111561311657600080fd5b613122888389016130a5565b9096509450602087013591508082111561313b57600080fd5b50613148878288016130a5565b95989497509550505050565b60008060008060008060008060a0898b03121561317057600080fd5b883561317b81612ee8565b9750602089013561318b81612ee8565b965060408901356001600160401b03808211156131a757600080fd5b6131b38c838d016130a5565b909850965060608b01359150808211156131cc57600080fd5b6131d88c838d016130a5565b909650945060808b01359150808211156131f157600080fd5b506131fe8b828c01612feb565b999c989b5096995094979396929594505050565b634e487b7160e01b600052604160045260246000fd5b601f8201601f191681016001600160401b038111828210171561324d5761324d613212565b6040525050565b60006001600160401b0382111561326d5761326d613212565b5060051b60200190565b600082601f83011261328857600080fd5b8135602061329582613254565b6040516132a28282613228565b83815260059390931b85018201928281019150868411156132c257600080fd5b8286015b848110156132dd57803583529183019183016132c6565b509695505050505050565b600080604083850312156132fb57600080fd5b82356001600160401b038082111561331257600080fd5b818501915085601f83011261332657600080fd5b8135602061333382613254565b6040516133408282613228565b83815260059390931b850182019282810191508984111561336057600080fd5b948201945b8386101561338757853561337881612ee8565b82529482019490820190613365565b9650508601359250508082111561339d57600080fd5b506133aa85828601613277565b9150509250929050565b600081518084526020808501945080840160005b838110156133e4578151875295820195908201906001016133c8565b509495945050505050565b602081526000612f5c60208301846133b4565b6000806000806060858703121561341857600080fd5b843561342381612ee8565b93506020850135925060408501356001600160401b0381111561344557600080fd5b61314887828801612feb565b60006020828403121561346357600080fd5b8135612f5c81612ee8565b6000806000806000806080878903121561348757600080fd5b863561349281612ee8565b955060208701356134a281612ee8565b945060408701356001600160401b03808211156134be57600080fd5b6134ca8a838b016130a5565b909650945060608901359150808211156134e357600080fd5b506134f089828a016130a5565b979a9699509497509295939492505050565b8015158114611f8c57600080fd5b6000806040838503121561352357600080fd5b823561352e81612ee8565b9150602083013561353e81613502565b809150509250929050565b600082601f83011261355a57600080fd5b81356001600160401b0381111561357357613573613212565b60405161358a601f8301601f191660200182613228565b81815284602083860101111561359f57600080fd5b816020850160208301376000918101602001919091529392505050565b600080600080600060a086880312156135d457600080fd5b85356001600160401b038111156135ea57600080fd5b6135f688828901613549565b955050602086013561360781612ee8565b9350604086013561361781613502565b9250606086013561362781613502565b9150608086013561363781612ee8565b809150509295509295909350565b60006020828403121561365757600080fd5b81356001600160401b0381111561366d57600080fd5b61367984828501613549565b949350505050565b6000806040838503121561369457600080fd5b823561369f81612ee8565b9150602083013561353e81612ee8565b60008060008060008060a087890312156136c857600080fd5b86356136d381612ee8565b955060208701356136e381612ee8565b9450604087013593506060870135925060808701356001600160401b0381111561370c57600080fd5b6134f089828a01612feb565b600181811c9082168061372c57607f821691505b6020821081141561374d57634e487b7160e01b600052602260045260246000fd5b50919050565b60208082526037908201527f434e46543a205468697320636f6e74726163742063616e206f6e6c792072656360408201527f656976652074686520756e6465726c79696e67204e4654000000000000000000606082015260800190565b60208082526030908201527f434e46543a204f6e6c792074686520434e465420636f6e74726163742063616e60408201526f103132903a34329037b832b930ba37b960811b606082015260800190565b6020808252601f908201527f5265656e7472616e637947756172643a207265656e7472616e742063616c6c00604082015260600190565b6020808252818101527f434e46543a2069642f616d6f756e7473206c656e677468206d69736d61746368604082015260600190565b634e487b7160e01b600052603260045260246000fd5b6020808252602e908201527f434e46543a20416d6f756e7473206d75737420626520616c6c20317320666f7260408201526d103737b716a2a92198989a9ab99760911b606082015260800190565b634e487b7160e01b600052601160045260246000fd5b600082198211156138f9576138f96138d0565b500190565b6000600019821415613912576139126138d0565b5060010190565b60006020828403121561392b57600080fd5b5051919050565b600082821015613944576139446138d0565b500390565b81835260006001600160fb1b0383111561396257600080fd5b8260051b8083602087013760009401602001938452509192915050565b6001600160a01b0387811682528616602082015260a0604082018190526000906139ac9083018688613949565b82810360608401526139bf818587613949565b8381036080909401939093525050600081526020019695505050505050565b600082516139f0818460208701612f7c565b9190910192915050565b6001600160a01b0386168152606060208201819052600090613a1f9083018688613949565b8281036040840152613a32818587613949565b98975050505050505050565b600060208284031215613a5057600080fd5b8151612f5c81612ee8565b6020808252818101527f4f776e61626c653a2063616c6c6572206973206e6f7420746865206f776e6572604082015260600190565b6001600160a01b0385168152602081018490526060604082018190528101829052818360808301376000818301608090810191909152601f909201601f191601019392505050565b600060208284031215613aea57600080fd5b8151612f5c81613502565b6020808252602b908201527f496e697469616c697a61626c653a20636f6e7472616374206973206e6f74206960408201526a6e697469616c697a696e6760a81b606082015260800190565b60208082526028908201527f455243313135353a2069647320616e6420616d6f756e7473206c656e677468206040820152670dad2e6dac2e8c6d60c31b606082015260800190565b604081526000613b9b60408301856133b4565b8281036020840152613bad81856133b4565b95945050505050565b6001600160a01b0386811682528516602082015260a060408201819052600090613be2908301866133b4565b8281036060840152613bf481866133b4565b90508281036080840152613a328185612fac565b600060208284031215613c1a57600080fd5b8151612f5c81612f29565b600060033d1115613c3e5760046000803e5060005160e01c5b90565b600060443d1015613c4f5790565b6040516003193d81016004833e81513d6001600160401b038160248401118184111715613c7e57505050505090565b8285019150815181811115613c965750505050505090565b843d8701016020828501011115613cb05750505050505090565b613cbf60208286010187613228565b509095945050505050565b634e487b7160e01b600052603160045260246000fdfea2646970667358221220b3391b78075adf696bbe34af5b2b7325388960469ca9262028833771963d2a4764736f6c63430008090033",
  "devdoc": {
    "kind": "dev",
    "methods": {
      "balanceOf(address,uint256)": {
        "details": "See {IERC1155-balanceOf}. Requirements: - `account` cannot be the zero address."
      },
      "balanceOfBatch(address[],uint256[])": {
        "details": "See {IERC1155-balanceOfBatch}. Requirements: - `accounts` and `ids` must have the same length."
      },
      "call(address,uint256,bytes)": {
        "params": {
          "data": "Encoded data to send",
          "to": "Contract address to call",
          "value": "ETH value to send, if any"
        }
      },
      "isApprovedForAll(address,address)": {
        "details": "See {IERC1155-isApprovedForAll}."
      },
      "onERC1155BatchReceived(address,address,uint256[],uint256[],bytes)": {
        "details": "Handles the receipt of a multiple ERC1155 token types. This function is called at the end of a `safeBatchTransferFrom` after the balances have been updated. To accept the transfer(s), this must return `bytes4(keccak256(\"onERC1155BatchReceived(address,address,uint256[],uint256[],bytes)\"))` (i.e. 0xbc197c81, or its own function selector).",
        "params": {
          "data": "Additional data with no specified format",
          "from": "The address which previously owned the token",
          "ids": "An array containing ids of each token being transferred (order and length must match values array)",
          "operator": "The address which initiated the batch transfer (i.e. msg.sender)",
          "values": "An array containing amounts of each token being transferred (order and length must match ids array)"
        },
        "returns": {
          "_0": "`bytes4(keccak256(\"onERC1155BatchReceived(address,address,uint256[],uint256[],bytes)\"))` if transfer is allowed"
        }
      },
      "onERC1155Received(address,address,uint256,uint256,bytes)": {
        "details": "Handles the receipt of a single ERC1155 token type. This function is called at the end of a `safeTransferFrom` after the balance has been updated. To accept the transfer, this must return `bytes4(keccak256(\"onERC1155Received(address,address,uint256,uint256,bytes)\"))` (i.e. 0xf23a6e61, or its own function selector).",
        "params": {
          "data": "Additional data with no specified format",
          "from": "The address which previously owned the token",
          "id": "The ID of the token being transferred",
          "operator": "The address which initiated the transfer (i.e. msg.sender)",
          "value": "The amount of tokens being transferred"
        },
        "returns": {
          "_0": "`bytes4(keccak256(\"onERC1155Received(address,address,uint256,uint256,bytes)\"))` if transfer is allowed"
        }
      },
      "onERC721Received(address,address,uint256,bytes)": {
        "details": "Whenever an {IERC721} `tokenId` token is transferred to this contract via {IERC721-safeTransferFrom} by `operator` from `from`, this function is called. It must return its Solidity selector to confirm the token transfer. If any other value is returned or the interface is not implemented by the recipient, the transfer will be reverted. The selector can be obtained in Solidity with `IERC721.onERC721Received.selector`."
      },
      "owner()": {
        "details": "Returns the address of the current owner."
      },
      "renounceOwnership()": {
        "details": "Leaves the contract without owner. It will not be possible to call `onlyOwner` functions anymore. Can only be called by the current owner. NOTE: Renouncing ownership will leave the contract without an owner, thereby removing any functionality that is only available to the owner."
      },
      "safeBatchTransferFrom(address,address,uint256[],uint256[],bytes)": {
        "details": "See {IERC1155-safeBatchTransferFrom}."
      },
      "safeTransferFrom(address,address,uint256,uint256,bytes)": {
        "details": "See {IERC1155-safeTransferFrom}."
      },
      "setApprovalForAll(address,bool)": {
        "details": "See {IERC1155-setApprovalForAll}."
      },
      "tokensByAccount(address)": {
        "details": "Returns a list of token IDs held by `account`."
      },
      "transferOwnership(address)": {
        "details": "Transfers ownership of the contract to a new account (`newOwner`). Can only be called by the current owner."
      },
      "uri(uint256)": {
        "details": "See {IERC1155MetadataURI-uri}. This implementation returns the same URI for *all* token types. It relies on the token type ID substitution mechanism https://eips.ethereum.org/EIPS/eip-1155#metadata[defined in the EIP]. Clients calling this function must replace the `\\{id\\}` substring with the actual token type ID."
      }
    },
    "version": 1
  },
  "userdoc": {
    "events": {
      "Call(address,uint256,bytes)": {
        "notice": "Event emitted when arbitrary contract is called"
      },
      "Mint(address,uint256[],uint256[])": {
        "notice": "Event emitted when cNFTs are minted"
      },
      "Redeem(address,uint256[],uint256[])": {
        "notice": "Event emitted when tokens are redeemed"
      }
    },
    "kind": "user",
    "methods": {
      "call(address,uint256,bytes)": {
        "notice": "Allows the admin to call arbitrary contracts, as long as the underlying balance is unchanged.This allows the admin to retrieve and distribute NFT airdrops that would otherwise be locked up in this contract."
      },
      "comptroller()": {
        "notice": "The address of the CNft's Comptroller."
      },
      "is1155()": {
        "notice": "Whether `underlying` represents an ERC-1155."
      },
      "isCNft()": {
        "notice": "Indicator that this is a CNft contract (for inspection)"
      },
      "isPunk()": {
        "notice": "Whether `underlying` represents a CryptoPunk."
      },
      "mint(uint256[],uint256[])": {
        "notice": "If underlying is not ERC1155, amounts must be all 1s."
      },
      "redeem(uint256[],uint256[])": {
        "notice": "If underlying is not ERC1155, amounts must be all 1s."
      },
      "totalBalance(address)": {
        "notice": "Mapping from user to number of tokens."
      },
      "underlying()": {
        "notice": "The underlying NFT contract."
      }
    },
    "version": 1
  },
  "storageLayout": {
    "storage": [
      {
        "astId": 6388,
        "contract": "contracts/CNft.sol:CNft",
        "label": "comptroller",
        "offset": 0,
        "slot": "0",
        "type": "t_address"
      },
      {
        "astId": 6391,
        "contract": "contracts/CNft.sol:CNft",
        "label": "underlying",
        "offset": 0,
        "slot": "1",
        "type": "t_address"
      },
      {
        "astId": 6394,
        "contract": "contracts/CNft.sol:CNft",
        "label": "isPunk",
        "offset": 20,
        "slot": "1",
        "type": "t_bool"
      },
      {
        "astId": 6397,
        "contract": "contracts/CNft.sol:CNft",
        "label": "is1155",
        "offset": 21,
        "slot": "1",
        "type": "t_bool"
      },
      {
        "astId": 6402,
        "contract": "contracts/CNft.sol:CNft",
        "label": "totalBalance",
        "offset": 0,
        "slot": "2",
        "type": "t_mapping(t_address,t_uint256)"
      },
      {
        "astId": 130,
        "contract": "contracts/CNft.sol:CNft",
        "label": "_initialized",
        "offset": 0,
        "slot": "3",
        "type": "t_bool"
      },
      {
        "astId": 133,
        "contract": "contracts/CNft.sol:CNft",
        "label": "_initializing",
        "offset": 1,
        "slot": "3",
        "type": "t_bool"
      },
      {
        "astId": 1836,
        "contract": "contracts/CNft.sol:CNft",
        "label": "__gap",
        "offset": 0,
        "slot": "4",
        "type": "t_array(t_uint256)50_storage"
      },
      {
        "astId": 1880,
        "contract": "contracts/CNft.sol:CNft",
        "label": "__gap",
        "offset": 0,
        "slot": "54",
        "type": "t_array(t_uint256)50_storage"
      },
      {
        "astId": 285,
        "contract": "contracts/CNft.sol:CNft",
        "label": "_balances",
        "offset": 0,
        "slot": "104",
        "type": "t_mapping(t_uint256,t_mapping(t_address,t_uint256))"
      },
      {
        "astId": 291,
        "contract": "contracts/CNft.sol:CNft",
        "label": "_operatorApprovals",
        "offset": 0,
        "slot": "105",
        "type": "t_mapping(t_address,t_mapping(t_address,t_bool))"
      },
      {
        "astId": 293,
        "contract": "contracts/CNft.sol:CNft",
        "label": "_uri",
        "offset": 0,
        "slot": "106",
        "type": "t_string_storage"
      },
      {
        "astId": 1373,
        "contract": "contracts/CNft.sol:CNft",
        "label": "__gap",
        "offset": 0,
        "slot": "107",
        "type": "t_array(t_uint256)47_storage"
      },
      {
        "astId": 6584,
        "contract": "contracts/CNft.sol:CNft",
        "label": "totalSupply",
        "offset": 0,
        "slot": "154",
        "type": "t_uint256"
      },
      {
        "astId": 6589,
        "contract": "contracts/CNft.sol:CNft",
        "label": "_tokensByAccount",
        "offset": 0,
        "slot": "155",
        "type": "t_mapping(t_address,t_struct(UintSet)6763_storage)"
      },
      {
        "astId": 211,
        "contract": "contracts/CNft.sol:CNft",
        "label": "_status",
        "offset": 0,
        "slot": "156",
        "type": "t_uint256"
      },
      {
        "astId": 255,
        "contract": "contracts/CNft.sol:CNft",
        "label": "__gap",
        "offset": 0,
        "slot": "157",
        "type": "t_array(t_uint256)49_storage"
      },
      {
        "astId": 10,
        "contract": "contracts/CNft.sol:CNft",
        "label": "_owner",
        "offset": 0,
        "slot": "206",
        "type": "t_address"
      },
      {
        "astId": 122,
        "contract": "contracts/CNft.sol:CNft",
        "label": "__gap",
        "offset": 0,
        "slot": "207",
        "type": "t_array(t_uint256)49_storage"
      }
    ],
    "types": {
      "t_address": {
        "encoding": "inplace",
        "label": "address",
        "numberOfBytes": "20"
      },
      "t_array(t_uint256)47_storage": {
        "base": "t_uint256",
        "encoding": "inplace",
        "label": "uint256[47]",
        "numberOfBytes": "1504"
      },
      "t_array(t_uint256)49_storage": {
        "base": "t_uint256",
        "encoding": "inplace",
        "label": "uint256[49]",
        "numberOfBytes": "1568"
      },
      "t_array(t_uint256)50_storage": {
        "base": "t_uint256",
        "encoding": "inplace",
        "label": "uint256[50]",
        "numberOfBytes": "1600"
      },
      "t_array(t_uint256)dyn_storage": {
        "base": "t_uint256",
        "encoding": "dynamic_array",
        "label": "uint256[]",
        "numberOfBytes": "32"
      },
      "t_bool": {
        "encoding": "inplace",
        "label": "bool",
        "numberOfBytes": "1"
      },
      "t_mapping(t_address,t_bool)": {
        "encoding": "mapping",
        "key": "t_address",
        "label": "mapping(address => bool)",
        "numberOfBytes": "32",
        "value": "t_bool"
      },
      "t_mapping(t_address,t_mapping(t_address,t_bool))": {
        "encoding": "mapping",
        "key": "t_address",
        "label": "mapping(address => mapping(address => bool))",
        "numberOfBytes": "32",
        "value": "t_mapping(t_address,t_bool)"
      },
      "t_mapping(t_address,t_struct(UintSet)6763_storage)": {
        "encoding": "mapping",
        "key": "t_address",
        "label": "mapping(address => struct EnumerableSet.UintSet)",
        "numberOfBytes": "32",
        "value": "t_struct(UintSet)6763_storage"
      },
      "t_mapping(t_address,t_uint256)": {
        "encoding": "mapping",
        "key": "t_address",
        "label": "mapping(address => uint256)",
        "numberOfBytes": "32",
        "value": "t_uint256"
      },
      "t_mapping(t_uint256,t_mapping(t_address,t_uint256))": {
        "encoding": "mapping",
        "key": "t_uint256",
        "label": "mapping(uint256 => mapping(address => uint256))",
        "numberOfBytes": "32",
        "value": "t_mapping(t_address,t_uint256)"
      },
      "t_mapping(t_uint256,t_uint256)": {
        "encoding": "mapping",
        "key": "t_uint256",
        "label": "mapping(uint256 => uint256)",
        "numberOfBytes": "32",
        "value": "t_uint256"
      },
      "t_string_storage": {
        "encoding": "bytes",
        "label": "string",
        "numberOfBytes": "32"
      },
      "t_struct(UintSet)6763_storage": {
        "encoding": "inplace",
        "label": "struct EnumerableSet.UintSet",
        "members": [
          {
            "astId": 6758,
            "contract": "contracts/CNft.sol:CNft",
            "label": "_values",
            "offset": 0,
            "slot": "0",
            "type": "t_array(t_uint256)dyn_storage"
          },
          {
            "astId": 6762,
            "contract": "contracts/CNft.sol:CNft",
            "label": "_indexes",
            "offset": 0,
            "slot": "1",
            "type": "t_mapping(t_uint256,t_uint256)"
          }
        ],
        "numberOfBytes": "64"
      },
      "t_uint256": {
        "encoding": "inplace",
        "label": "uint256",
        "numberOfBytes": "32"
      }
    }
  }
}